:020000020000FC
:020000001CC022
:02000800F0C046
:02003400D6C034
:10003800C1C0F8940FE007B901E004B904EE0AB9A9
:1000480000E00093C50001E80093C40000E10093BC
:10005800C10006E00093C20000E004BD05BD02E057
:1000680004BD00E005BD08EF07BD00E00BB902E0E4
:1000780000936E0000E00093800000E00093810090
:1000880001E000936F000CE00093690000E00DBBF5
:1000980000E010E020E030E040E050E070E080E078
:1000A80005B908B90BB9789400C05A980091C000F6
:1000B80007FFFBCF5091C60000E00093C10002E0AB
:1000C80000931C00513309F420C0523309F432C0A4
:1000D800533309F444C0543309F42CC008E00093A6
:1000E800C1005A9A0091C00005FFF8CF65E46093FB
:1000F800C60000C00091C00006FFFCCF00E60093D8
:10010800C00000E10093C100D0CFF89481E002E084
:100118000DBB00E006BD009384000093850040E01D
:1001280001E005BD009381005D985E985F9A28986C
:1001380078943FC0F89482E002E00DBB00E006BD71
:10014800009384000093850040E001E005BD009322
:1001580081005D985E985F98289A78942AC0F894F0
:1001680084E002E00DBB00E006BD0093840000932C
:10017800850040E001E005BD009381005D9A5E982E
:100188005F982898789415C088E0F89402E00DBB31
:1001980000E006BD009384000093850040E001E084
:1001A80005BD009381005D985E9A5F9828987894C1
:1001B80000C0FFCFF894703031F400C088B971E006
:1001C8007894470FF6CF70E07894F3CF5E9870E09C
:1001D80000E0009325007894ECCFF8943395789458
:1001E800E8CFF89400E00093810005BD00E00DBB66
:1001F800109184002091850008B970E05D985E98A0
:100208005F98289808E00093C1005A9A789400C033
:100218000091C00005FFFCCF5093C6000091C000BC
:1002280006FFFCCF00E60093C0000091C00005FF68
:10023800FCCF1093C6000091C00006FFFCCF00E67B
:100248000093C0000091C00005FFFCCF2093C600BA
:100258000091C00006FFFCCF00E60093C0000091AB
:0C026800C00005FFFCCF3093C60044CF5F
:00000001FF
