:020000020000FC
:020000001CC022
:02000800ECC04A
:02001C00CEC054
:02003400F0C01A
:10003800D9C0F8940FE007B901E004B904EE0AB991
:1000480000E00093C50001E80093C40000E10093BC
:10005800C10006E00093C20003E803BD00E000937E
:10006800B0000093B10002E00093B00001E00093FB
:10007800B10008EF0093B30002E00093700000E0C5
:100088000093800001E00093810001E000936F007D
:1000980000E004BD05BD02E004BD02E005BD0FE3BC
:1000A80007BD02E000936E000CE00093690000E0D9
:1000B8000DBB00E010E020E030E040E050E070E0F0
:1000C80080E005B908B90BB906BD00938400009318
:1000D80085005D985E985F982898789400C05A9833
:1000E8000091C00007FFFBCF5091C60000E00093CD
:1000F800C10040E002E000931C00F89460E0513336
:1001080091F0523309F1533381F15433F9F108E096
:100118000093C1005A9A0091C00005FFF8CF65E42A
:100128006093C600A5C081E002E00DBB00E006BDFB
:1001380000938400009385000093B20030E001E84A
:1001480003BD5E9A789433C082E002E00DBB00E004
:1001580006BD00938400009385000093B20030E050
:1001680001E803BD5D9A789422C084E002E00DBBEB
:1001780000E006BD00938400009385000093B20060
:1001880030E001E803BD289A789411C088E002E0C5
:100198000DBB00E006BD009384000093850000932A
:1001A800B20030E001E803BD5F9A789400C078940B
:1001B800FECFF8944F3059F0703029F488B971E0C7
:1001C80078944395F4CF70E078B97894F0CF70E0E4
:1001D800803088B902E803BDEACFF89461E000E016
:1001E80006BDE5CF603019F303E803BD1091840024
:1001F8002091850000E00DBB5D985E985F98289877
:1002080008B908E00093C1005A9A789403C033955E
:100218007894CDCF0091C00005FFFCCF5093C60065
:100228000091C00006FFFCCF00E60093C0000091DB
:10023800C00005FFFCCF1093C6000091C00006FF68
:10024800FCCF00E60093C0000091C00005FFFCCF82
:100258002093C6000091C00006FFFCCF00E6009383
:10026800C0000091C00005FFFCCF3093C60000C05D
:100278000091C00006FFFCCF00E60093C00000E13B
:060288000093C1002CCF21
:00000001FF
