:020000020000FC
:020000001CC022
:02000800CCC06A
:02003400B3C057
:10003800A6C0F8940FE007B901E004B904EE0AB9C4
:1000480000E00093C50001E80093C40000E10093BC
:10005800C10006E00093C20001E803BD00E004BD52
:1000680005BD02E004BD01E005BD08EF07BD02E0E3
:1000780000936E0000E00093800001E0009381008F
:1000880001E000936F000CE00093690000E00DBBF5
:1000980000E010E020E030E040E050E070E080E078
:1000A80090E005B908B90BB906BD00938400009328
:1000B80085005D985E985F982898789400C05A9853
:1000C8000091C00007FFFBCF5091C60000E000E0A0
:1000D8000093C10010E020E030E002E000931C0033
:1000E800F894513391F05233F1F0533351F15433C2
:1000F800B1F108E00093C1005A9A0091C00005FFD1
:10010800F8CF65E46093C6008EC081E002E00DBBC5
:1001180000E006BD009384000093850030E003BD35
:100128005E9A78942AC082E000E006BD00938400BD
:100138000093850030E003BD5D9A02E00DBB789422
:100148001CC084E000E006BD009384000093850095
:1001580030E003BD289A02E00DBB78940EC088E019
:1001680000E006BD009384000093850030E003BDE5
:1001780002E00DBB5F9A789400C07894FECFF894A3
:10018800703021F488B971E07894F7CF70E078B9CD
:100198007894F3CF33957894F0CFF894939595307D
:1001A80062F300E00DBB03E803BD109184002091C9
:1001B800850008B970E05D985E985F98289808E017
:1001C8000093C1005A9A789400C00091C00005FFBE
:1001D800FCCF5093C6000091C00006FFFCCF00E69C
:1001E8000093C0000091C00005FFFCCF1093C6002B
:1001F8000091C00006FFFCCF00E60093C00000910C
:10020800C00005FFFCCF2093C6000091C00006FF88
:10021800FCCF00E60093C0000091C00005FFFCCFB2
:100228003093C60000C000E006BD00938400009330
:10023800850090E030E00091C00006FFF4CF00E6B2
:0C0248000093C00000E10093C100F3CE61
:00000001FF
