:020000020000FC
:020000001CC022
:02000800CCC06A
:02003400B3C057
:10003800A5C0F8940FE007B901E004B904EE0AB9C5
:1000480000E00093C50001E80093C40000E10093BC
:10005800C10006E00093C20001E803BD00E004BD52
:1000680005BD02E004BD01E005BD08EF07BD02E0E3
:1000780000936E0000E00093800001E0009381008F
:1000880001E000936F000CE00093690000E00DBBF5
:1000980000E010E020E030E040E050E070E080E078
:1000A80005B908B90BB906BD009384000093850013
:1000B8005D985E985F982898789400C05A98009147
:1000C800C00007FFFBCF5091C60000E00093C100BD
:1000D80002E000931C00F894513391F05233F9F088
:1000E800533361F15433C9F108E00093C1005A9ABF
:1000F8000091C00005FFF8CF65E46093C60093C087
:1001080081E002E00DBB00E006BD0093840000938F
:10011800850030E040E003BD5E9A78942DC082E00F
:1001280002E00DBB00E006BD00938400009385004B
:1001380030E040E003BD5D9A78941EC084E002E0A0
:100148000DBB00E006BD009384000093850030E0FD
:1001580040E003BD289A78940FC088E002E00DBB08
:1001680000E006BD009384000093850030E040E085
:1001780003BD5F9A789400C07894FECFF8947030ED
:1001880029F488B971E078944395F6CF70E078B98E
:100198007894F2CF33957894EFCFF89403950130A3
:1001A80059F301E803BD109184002091850000E017
:1001B8000DBB08B970E05D985E985F98289808E0D4
:1001C8000093C1005A9A789400C00091C00005FFBE
:1001D800FCCF5093C6000091C00006FFFCCF00E69C
:1001E8000093C0000091C00005FFFCCF1093C6002B
:1001F8000091C00006FFFCCF00E60093C00000910C
:10020800C00005FFFCCF2093C6000091C00006FF88
:10021800FCCF00E60093C0000091C00005FFFCCFB2
:100228003093C60000C00091C00006FFFCCF00E676
:0C0238000093C00000E10093C10040CF23
:00000001FF
